:020000040800F2
:10000000A04C00205D020008913800087D2D0008FA
:10001000D1370008590A0008B54700080000000061
:100020000000000000000000000000009D0100082A
:10003000190B000800000000F9010008A93F0008A2
:1000400077020008770200087702000877020008AC
:10005000770200087702000877020008770200089C
:10006000770200087702000877020008770200088C
:10007000770200087702000877020008770200087C
:10008000770200087702000877020008770200086C
:10009000770200087702000877020008770200085C
:1000A000770200087702000877020008770200084C
:1000B000770200087702000877020008770200083C
:1000C000770200087702000877020008770200082C
:1000D00077020008714700087702000877020008DD
:1000E00077020008770200087702000879400008CC
:1000F00077020008854000087702000877020008B0
:1001000077020008770200087702000877020008EB
:1001100077020008770200087702000877020008DB
:1001200077020008770200085D0A000877020008DD
:1001300077020008770200087702000877020008BB
:1001400077020008770200087702000877020008AB
:100150007702000877020008690A000877020008A1
:10016000770200087702000877020008770200088B
:1001700077020008770200087702000800000000FC
:100180007702000877020008DFF80CD000F052FC7C
:1001900000480047955F0008A04C00202C4B1968D0
:1001A0000868B0E8F04F80F30988BFF36F8F4FF015
:1001B000000080F3118870470000000008480068C4
:1001C000006880F308884FF0000080F3148862B65E
:1001D00061B6BFF34F8FBFF36F8F00DF00BF00BF6B
:1001E00008ED00E0DFF80C00016841F470010160E7
:1001F000704700BF88ED00E0EFF30980BFF36F8F19
:10020000134B1A681EF0100F08BF20ED108A20E96A
:10021000F04F106009B44FF0500080F31188BFF325
:100220004F8FBFF36F8F07F049FA4FF0000080F354
:10023000118809BC19680868B0E8F04F1EF0100F6B
:1002400008BFB0EC108A80F30988BFF36F8F704746
:1002500068000020EFF305807047000006488047E3
:1002600006480047FEE7FEE7FEE7FEE7FEE7FEE79B
:10027000FEE7FEE7FEE7FEE76940000889010008A7
:100280002DE9F05F0546002092469B4688460646CB
:10029000814640241BE0284641464746224600F05E
:1002A000CEFA53465A46C01A914110D31146184609
:1002B000224600F0B5FA2D1A67EB01084F46224698
:1002C0000120002100F0ACFA17EB00094E41201E7E
:1002D000A4F10104DFDC484631462A464346BDE826
:1002E000F09F2DE9F0410024061B254671F1000620
:1002F00005DA01240027D0EB070067EB0101161E89
:1003000073F1000605DA0027D2EB0702012567EB3F
:100310000303FFF7B5FF86460E4617469C46AC42E0
:1003200004D00025D0EB050E65EB010624B10020BA
:10033000D2EB000760EB030C704631463A46634649
:10034000BDE8F08140EA01039B0703D009E008C93A
:10035000121F08C0042AFAD203E011F8013B00F88A
:10036000013B521EF9D27047D2B201E000F8012BD6
:10037000491EFBD270470022F6E710B513460A4625
:1003800004461946FFF7F0FF204610BD30B504467D
:100390000020034600E05B1C934203D2E05CCD5C8E
:1003A000401BF8D030BD2DE9FE4F804681EA0300A6
:1003B000C00F0C46009021F0004123F00045B8EB3F
:1003C0000200A94105D24046214690461C460B46F4
:1003D000024623F00040104347D0270DC7F30A0020
:1003E000C3F30A510290401A019040286BDAC3F31C
:1003F000130040F4801B0098924620B10023D2EBFA
:10040000030A63EB0B0B01985946C0F140025046BA
:1004100000F006FA06460D4650465946019A00F08D
:100420001EFA10EB08006141002487EA115284EAA9
:10043000E7731A4340D0009A62B3019A012A4FEA47
:10044000075215DC001B61EB02014FF0004202EA8B
:100450000752CDE90042001C41F5801132462B467F
:1004600000F055FA03B0BDE8F08F40462146F9E7A9
:10047000001B61EB0201001C41F5801300185B4179
:100480002018A2F5001747EB030140EAD570B61912
:100490006D4111E06D084FEA360645EAC0754FEA36
:1004A0000752001B61EB0201001C41F58011490855
:1004B0004FEA30000019514132462B4603B0BDE8E7
:1004C000F04F00F015BA0098012240000023D0EB55
:1004D000020263EBE073009821464FEAE074B8EB48
:1004E000000061EB0401E9E783F000435BE781F082
:1004F000004158E72DE9FE4F81EA030404F000446F
:1005000021F0004100944FF0000B23F0004350EA2B
:1005100001045ED052EA03045BD0C3F30A54C1F372
:100520000A552C44A4F2F3340194A0FB0254C1F305
:10053000130141F48011C3F3130343F4801301FB4F
:10054000024400FB034E840A970A44EA815447EAB6
:100550008357A4FB076802958D0A05FB07854FEAC0
:10056000932C04FB0C542705029D4FEA065847EADA
:100570001637B5EB08056EEB070C870E920E47EAAF
:10058000811742EA8312A7FB0201B6EB0B0164EB71
:1005900000042B0D43EA0C335E1844EB1C50DA4682
:1005A0005146E7FB0201C5F313044FEA0B3343EA5C
:1005B00014534FEA0432019C43EA0603A4F10C04ED
:1005C0000294009CCDE900B400F0A1F903B0BDE8AD
:1005D000F08F00200146F9E72DE9F04D81EA030490
:1005E00004F0004B21F0004514464FF0000A23F0C0
:1005F000004150EA050220D054EA01021DD0C5F3A3
:100600000A570246C5F31303C1F31300C1F30A5698
:1006100040F4801543F48013A7EB0608101BD64660
:1006200008F2FD3873EB050002D308F1010801E080
:1006300092185B41B8F1000F03DA00200146BDE8D3
:10064000F08D00204FF48011064684460EE0171B03
:1006500073EB050705D3121B63EB050306434CEA56
:10066000010C49084FEA300092185B4150EA01073B
:10067000EDD152EA030012D082EA040083EA0501B8
:10068000084305D0101BAB4106D20122002306E02F
:1006900000224FF0004302E06FF0010253101AEB0A
:1006A00006004CEB085110EB0A0041EB0B01BDE8D2
:1006B000F04D00F01DB90EB5C10F80EAE07008449E
:1006C000CA07002140F233438DE80E000A460B466C
:1006D00000F01DF903B000BD0EB540F233410291A8
:1006E0000021CDE900110A460B4600F010F903B0D5
:1006F00000BD70B5C1F30A5201F000450024C1F3FA
:10070000130140F2FF3341F480119A4201DA0020D4
:1007100070BD40F233439A42A2F2334203DC5242AC
:1007200000F08DF800E090402C43F1D0404270BDC5
:10073000C1F30A5210B5C1F3130140F2FF3341F483
:1007400080119A4201DA002010BD40F233439A42F0
:10075000A2F2334203DC524200F071F810BD904027
:1007600010BD00F0004230F000400AD0C10D01F58C
:100770006071C0F3160042EA0151C20840071143FC
:10078000704700200146704730B5041E71F1000427
:1007900004DB4FF00044404264EB0101141E73F18E
:1007A000000405DB1C464FF00043524263EB040398
:1007B0008B4208BF824230BD30B5041E71F1000487
:1007C00004DB4FF00044404264EB0101141E73F15E
:1007D000000405DB1C464FF00043524263EB040368
:1007E000994208BF904230BD01F0004330B421F07F
:1007F000004150EA010206D00A0DA2F56072C1F371
:100800001301002A02DC30BC00207047440F44EA88
:10081000C104C100E01830BC00EBC25000F031B898
:10082000202A04DB203A00FA02F1002070479140B0
:10083000C2F1200320FA03F3194390407047202AA5
:1008400004DB203A21FA02F00021704721FA02F37A
:10085000D040C2F120029140084319467047202A37
:1008600006DBCB17203A41FA02F043EAE07306E0D8
:1008700041FA02F3D040C2F12002914008431946E8
:1008800070470029A8BF7047401C490008BF20F0EE
:100890000100704710B4B0FA80FC00FA0CF050EA86
:1008A000010404BF10BC704749B1CCF1200421FA07
:1008B00004F411FA0CF118BF012121430843A3EB02
:1008C0000C01CB1D4FEA00614FEA102042BF00200F
:1008D00010BC704700EBC35010440029A4BF10BCEB
:1008E0007047401C490008BF20F0010010BC704751
:1008F00010B5141E73F1000408DA401C41F1000128
:1009000092185B411A4301D120F0010010BD2DE97E
:10091000F04D92469B4611B1B1FA81F202E0B0FA75
:1009200080F220329046FFF77BFF04460F4640EAF4
:100930000A0041EA0B0153465A46084313D01146B8
:1009400053EA010019D0C8F140025046FFF777FF83
:1009500005460E46504659464246FFF761FF08439A
:1009600005D0012004E020463946BDE8F08D002086
:10097000054346EAE0762C4337430A986305E40AC8
:10098000A0EB08000022FD0A44EA47540A3002D5D1
:1009900000200146E9E7010510196941DDE9084534
:1009A00000196941BDE8F04DA2E700002DE9F041D2
:1009B000054621F000400C46284309D0C4F30A50F4
:1009C00040F23341884205DD28462146BDE8F081EA
:1009D0002846FBE740F2FE31884210DC0CDB4FEA90
:1009E000043040EA155050EA053105D0104804F0B3
:1009F000004101430020E9E700200146E6E7A0F2BC
:100A000033404642C6F1400228462146FFF708FF20
:100A100007468846284621463246FFF710FF4346E0
:100A20003A46FFF765FF3246BDE8F041FFF7F8BEF2
:100A30000000F03F064C074D06E0E06840F001037F
:100A400094E8070098471034AC42F6D3FFF7A0FBB8
:100A50003C9000085C900008FEE70000014800F0B0
:100A60001FB9000008060020014800F019B9000075
:100A70006806002001681823CAB2103AB2FBF3F2EC
:100A8000054B6FF30901032A9B5CC36500D9091D5F
:100A90008165084670470000D87A000810B5014605
:100AA00000208B698A6A4FF0C07453B1B3F5005FC0
:100AB00015D072B1012A0CD0022A0AD0032A09D11A
:100AC00004E01AB1012A06D0022A03D1C96AC90179
:100AD00000D5012010BDC96AA142FAD010BD002A7C
:100AE000F7D0012AF2D0022AF3D0032AF3D010BDA6
:100AF00030B50468256825F48025256004686360A6
:100B00008368402B036803D099600068C26030BDE1
:100B10009A600068C16030BD7047000003480168FA
:100B2000486A002200B24A627047000014040020A4
:100B300003480168486A002200B24A627047000018
:100B4000CC03002072B6FEE710B5FFF7E7FFFFF712
:100B5000B2FD9FED0B1B53EC112BFFF7CBFC9FED70
:100B60000A1B53EC112BFFF737FD9FED091B53ECCC
:100B7000112BFFF7BFFCFFF7BCFD00B210BD00005A
:100B8000295C8FC2F5683440000000000060984086
:100B9000000000000000694010B5FFF7C9FFFFF733
:100BA0008AFD9FED0B1B53EC112BFFF7A3FC9FED70
:100BB0000A1B53EC112BFFF70FFD9FED091B53ECA4
:100BC000112BFFF797FCFFF794FD00B210BD00005A
:100BD000295C8FC2F5683440000000000060984036
:100BE00000000000000069402DE9F0410446876DD7
:100BF00000F0D8FA064694F835000025022806D001
:100C00008020606584F834500120BDE8F0812068C0
:100C1000016821F0160101602068416921F080011E
:100C20004161206C08B9A06C20B12068016821F0F6
:100C3000080101602068016821F0010101600CE0F9
:100C400000F0B0FA801B052807D92020606503203A
:100C500084F8350084F83450D7E720680068C0076E
:100C6000EED194F85C103F208840B860012084F8F1
:100C7000350084F834500020C7E790F83510022979
:100C800003D08021416501207047052180F835108F
:100C90000068016821F00101016000207047000038
:100CA0002DE9F84304464FF00009CDF80090634861
:100CB0004FF41651A56D0068B0FBF1F72E6894F85B
:100CC0005C10082000FA01F131420FD021680A6857
:100CD00052070BD50A6822F004020A6094F85C10EF
:100CE0008840A860606D40F00100606594F85C1079
:100CF0004FF0010808FA01F0304208D02168496934
:100D0000090604D5A860606D40F00200606594F8A3
:100D10005C1004208840304208D0216809688907A7
:100D200004D5A860606D40F00400606594F85C1024
:100D300010208840304218D021680968090714D56E
:100D4000A86020680168490304D50068000308D53D
:100D5000A16C07E00168C90503D4016821F008010E
:100D60000160216C09B12046884794F85C1020206E
:100D70008840304231D021680968C9062DD5A86065
:100D800094F8350005282068016806D0490347D546
:100D9000006800031DD4616C1CE021F016010160A5
:100DA0002068416921F080014161206C08B9A06C84
:100DB00020B12068016821F00801016094F85C10FE
:100DC0003F208840A86084F8358084F83490216DF5
:100DD0001FE0E16B09B120468847606D00282BD0E9
:100DE000606DC00714D0052084F8350020680168C4
:100DF00021F0010101600098401C0090B84203D826
:100E000020680068C007F6D184F8358084F83490F3
:100E1000E16C002910D001B02046BDE8F04308473E
:100E20000168C905D5D4016821F01001016084F87A
:100E3000358084F83490CCE7BDE8F8836400002066
:100E40002DE9F041044600F0ADF906465CB1022000
:100E500084F83500002584F834502068016821F0BA
:100E6000010101600DE00120BDE8F08100F09AF978
:100E7000801B052805D920206065032084F83500F3
:100E8000F2E720680068C007F0D1226811682048A6
:100E90000140D4E901031843D4E90336334318432E
:100EA00063691843A3691843E3691843236A184325
:100EB0000843616A042903D1D4E90B131943084399
:100EC000106020684069666A20F0070130460E43D2
:100ED000012704280CD1A06A0643E06A40B12046ED
:100EE000FFF7DCFD20B14020606584F83570BAE77B
:100EF000206846612046FFF7BDFD94F85C203F2145
:100F000091408160656584F835700020ACE7000091
:100F10003F8010F02DE9F0410446866D90F83400D2
:100F2000002501280DD0012084F8340094F8357094
:100F30000020012F07D084F8340002252846BDE8A0
:100F4000F0810220FBE7022784F8357060652046B7
:100F5000FFF7CEFD94F85C103F208840B060206819
:100F6000016841F016010160206C20B12068016821
:100F700041F0080101602068016841F00101016051
:100F8000DCE7000070B5044600F00CF90546601C73
:100F900002D004480078044400F004F9401BA04249
:100FA000FAD370BD580000202DE9F84FDFF8BCA13E
:100FB0000022012503264FF00F090AF1040BAAF1C4
:100FC000040E00BF0B6805FA02F42340A34270D15F
:100FD0000F7907F00307012F01D0022F16D1876880
:100FE0004FEA420806FA08FC27EA0C07D1F80CC0C1
:100FF0000CFA08FC4CEA070CC0F808C04768A74385
:101000000C79C4F3001494403C4344600C79E443ED
:10101000A4070AD0C4684FEA420C06FA0CF7BC4396
:101020008F6807FA0CF72743C7600C7904F00304B4
:10103000022C12D1D40800EB840CDCF820405707B6
:10104000FF0E09FA07F824EA0804D1F8108008FA1C
:1010500007F848EA0408CCF8208004684FEA420CFC
:1010600006FA0CF7BC430F7907F0030707FA0CF7F1
:10107000274307604C6814F4403F70D03C4C27680D
:1010800047F480472760246822F0030704F4804473
:101090000094384C07EB040CDCF8084897074FEA3B
:1010A000177809FA08F7BC43334FB84202D100273A
:1010B00024E054E0314FB84201D101271EE0304F07
:1010C000B84201D1022719E02E4FB84201D10327BF
:1010D00014E02D4FB84201D104270FE02B4FB84246
:1010E00001D105270AE02A4FB84201D1062705E0C1
:1010F000284FB84201D1072700E0082707FA08F770
:101100002743CCF80878DAF800405746D1F804C0F5
:101110009C435FEACC2C00D51C433C60DBF80040CC
:101120005F46D1F804C09C435FEA8C2C00D51C4379
:101130003C60DEF800407746D1F804C09C435FEA8B
:101140008C3C00D51C433C60084F083F3C68D1F8FC
:1011500004C09C435FEACC3C00D51C433C60521C5D
:10116000102AFFF42FAFBDE8F88F0000083C0140C3
:1011700044380240003001400000024000040240B8
:1011800000080240000C024000100240001402401F
:1011900000180240001C02400AB181617047090436
:1011A000FBE70000014880687047000058000020FD
:1011B00070B5040025D094F83D00002520B984F8CE
:1011C0003C50204600F04CFA242084F83D00206872
:1011D000016821F0010101602068016841F40041CB
:1011E00001602068016821F40041016000F0F2FB19
:1011F0004D4A6168914201D84C4900E04C4988420F
:1012000001D2012070BD4B492368B0FBF1F15E684B
:1012100026F03F060E435E606368934206D94FF4A2
:10122000967359434FF47A73B1FBF3F12368491C69
:101230001E6A26F03F06314319626168914210D858
:101240004900401EB0FBF1F2521CC2F30B02042A0B
:1012500001D2042022E0B0FBF1F0401CC0F30B00EF
:101260001CE0A268F2B301EBC10303EB0116431EBD
:10127000B3FBF6F35B1C43F480431B0549D092B3E8
:1012800001EBC10202EB0111401EB0FBF1F0401C6A
:10129000C0F30B0040F4804040F400402168CA696C
:1012A0004CF6FF739A431043C861D4E90710014319
:1012B0002068026822F0C00211430160D4E90301F2
:1012C00001432068826848F2FF339A4311438160EA
:1012D000D4E9050108432168CA6822F0FF021043DF
:1012E000C86001E00EE016E02068016841F00101ED
:1012F00001602564202084F83D00256384F83E5079
:10130000002070BD01EB4106431EB3FBF6F35B1CEE
:10131000B3E70120C2E701EB4101401EB0FBF1F051
:10132000401CC0F30B00B7E7A086010080841E00BC
:1013300000093D0040420F002DE9FF4F83B09A465F
:10134000DDE9119793460446DDF84080FFF72AFF58
:10135000054694F83D00202870D1192301227149D7
:101360002046009501F01AFE0028F5D194F83C00C3
:10137000012863D0012084F83C0020680168C90777
:1013800003D1016841F0010101602068016821F486
:1013900000610160222084F83D00402084F83E0076
:1013A00000262664C4F82480A4F82A90608D208545
:1013B0005D48E062CDE9007553465A4620460499DF
:1013C00001F0F4FC00287CD1208DD0B1012821D07F
:1013D0000228206824D0416980690090208D03286C
:1013E00069D801282BD0514902283B464FF0000212
:1013F000009559D08846204601F0D0FD002860D1E4
:101400003CE02068416981690091016841F4007104
:10141000016077E02068016821F480610160F0E7F5
:10142000016821F4806101602068016841F4006175
:101430000160206841698069009063E06FE02A469E
:101440003946204601F029FE98BB20680069616A90
:1014500008704EE02068016841F400710160206866
:101460000069616A0870606A401C6062218D491ED3
:101470002185618D491E6185216838E020680168F9
:1014800021F48061016020680069616A0870606A07
:10149000401C6062208D401E2085608D401E60854E
:1014A0003B46002241460095204601F077FD00B9F9
:1014B000D0E706E0FFE72A463946204601F0EDFD79
:1014C00018B1012007B0BDE8F08F20680069616A9B
:1014D0000870606A401C6062218D491E2185618D03
:1014E000491E618521684A69D24352070AD40969B5
:1014F0000170606A401C6062208D401E2085608DF6
:10150000401E6085208D00287FF468AF202084F87D
:101510003D0084F83E6084F83C600020D2E7022061
:10152000D0E70000020010000000FFFF04000100EF
:101530002DE9FF4F83B09A46DDE9119793460446A3
:10154000DDF84080FFF72EFE054694F83D00202888
:101550007FD11923012240492046009501F01EFD4C
:10156000002876D194F83C00012872D0012084F83C
:101570003C0020680168C90703D1016841F00101FE
:1015800001602068016821F400610160212084F875
:101590003D00402084F83E0000262664C4F82480E4
:1015A000A4F82A90608D20852C48E062CDE9007572
:1015B00053465A462046049901F076FC70B930E053
:1015C0002A463946204601F09BFD58B1206C04287C
:1015D00004D12068016841F400710160012007B066
:1015E000BDE8F08F606A216800780861606A401C7D
:1015F0006062218D491E89B22185628D521E6285ED
:1016000022685369DB435B070BD469B10078106132
:10161000606A401C6062208D401E2085608D401EE7
:101620006085208D0028CBD12A463946204601F01E
:101630008FFC0028CAD154F83D0B016841F40071B9
:101640000160202004F81E09E67766770020C6E7CF
:10165000FFE70220C3E70000020010000000FFFFC8
:1016600010B586B0044614216846FEF784FE14497E
:101670002068884221D113480021026842F002020A
:101680000260006800F0020005904FF44060009096
:101690001220CDE901010320039004200490694643
:1016A0000948FFF781FC07481030016841F48001C8
:1016B0000160006800F48000059006B010BD0000D5
:1016C000005800403038024000040240024881685F
:1016D0000278114481607047580000200B4810B513
:1016E000016841F400710160016841F480610160AA
:1016F000016841F480710160032000F09FF80F2021
:1017000000F006F800F050F8002010BD003C024048
:1017100030B505461F4887B00024016841F4807148
:101720000160006806A900F48070009001A800F034
:1017300031F90498A8B100F04DF940001649174A54
:10174000B0FBF1F11648491E026040F2E732C0E9F1
:101750000324C0E90114846100F08EFB040003D06F
:1017600015E000F037F9E9E70D4800F007FC040048
:101770000DD12D2000F034F8102D07D2002229467B
:101780002D2000F03BF80748056000E0012407B079
:10179000204630BD4038024040420F00002000404B
:1017A000C80600205C0000200C4882B0016841F4AB
:1017B00080410160006800F4804000900748001FED
:1017C000016841F0805101600068002200F0805003
:1017D00000900F21901E02B000F010B84438024073
:1017E000002809DB00F01F02012191404009800020
:1017F00000F1E020C0F8001170470000F0B40E4B7B
:101800001B680C46C3F30223C3F10705042D00D95E
:101810000425191D072901D2002300E0DB1E012643
:1018200006FA05F1491E214099409E40761E164059
:101830003143F0BC02F0D7BF0CED00E0064900F0E8
:10184000070208684FF6FF03184040EA0220034AE7
:1018500010430860704700000CED00E00000FA053E
:101860002DE9F0470E46050065D0DFF81481D8F861
:101870000000F7B200F00700B04207D288F800700D
:10188000D8F8000000F00700B04254D128683D4C61
:10189000810712D5400703D5206840F4E05020604E
:1018A0002878000703D5206840F460402060206855
:1018B000A96820F0F000084320602878C0072DD0E8
:1018C000304968680839012812D0022813D003284B
:1018D00011D00968890700292DDA216821F0030158
:1018E00001432160FFF75EFC814641F2883A0EE039
:1018F00009688903EFE709688901ECE7FFF752FC03
:10190000A0EB0901514502D90320BDE8F08720680A
:10191000696800F00C00B0EB810FEFD1D8F800102F
:10192000404601F00701B14207D90770006800F096
:101930000700B04201D00120E7E72878400705D52D
:101940002068E96820F4E050084320602878000708
:1019500006D52068296920F4604040EAC100206073
:1019600000F058F82168084AC1F30311515CC840DF
:101970000649086006480068FFF7CAFE0020C4E771
:10198000003C024008380240E07A00086400002071
:101990005C0000200F2202600C4A136803F003036E
:1019A0004360136803F0F0038360136803F4E053AB
:1019B000C36012684FF4E05303EAD20202610448A4
:1019C000006800F007000860704700000838024017
:1019D000003C02400448054900680968044AC1F314
:1019E0008221515CC84070476400002008380240E2
:1019F000F07A00080448054900680968044AC1F300
:101A00004231515CC84070476400002008380240F1
:101A1000F07A0008154810B5006810F00C02144860
:101A200013D01449042A0FD0082A0ED10F4C241FBA
:101A30002268236802F03F025B0207D52068C0F3EA
:101A40008810A0FB010106E0084610BD2168C1F323
:101A50008811A1FB00010023FEF712FC2168C1F3ED
:101A60000141491C4900B0FBF1F010BD08380240AB
:101A70000024F40040787D012DE9F84F04006ED079
:101A80002078DFF84C93C007A9F104054AD009F18A
:101A900004000168C1F38101012908D00068C0F386
:101AA000810002280AD1D9F80000400206D5286832
:101AB000800337D560680028E1D033E06068B0F576
:101AC000803F10D0B0F5A02F286810D020F48030CF
:101AD0002860286820F4802028606068A8B1FFF79B
:101AE00061FB06460DE0286840F48030F4E740F4DE
:101AF00080202860F7E700BFFFF754FB801B6428B5
:101B000073D828688003F7D50CE0FFF74BFB064637
:101B100005E000BFFFF746FB801B6428F0D828686B
:101B20008003F7D42078DFF8AC8280074FF0000AFA
:101B30003ED5A748001D016811F00C0F08D00068C1
:101B4000C0F3810002280BD1D9F80000400207D46D
:101B50002868800716D5E068012800D112E033E13B
:101B6000E068B8B10120C8F80000FFF71BFB06468B
:101B700005E000BFFFF716FB801B0228C0D82868CD
:101B80008007F7D52868216920F0F80040EAC100F5
:101B900028600DE0C8F800A0FFF704FB064604E04B
:101BA000FFF700FB801B02281FD828688007F7D4A6
:101BB0002078000722D5864F87486169703771B158
:101BC00001210160FFF7EEFA064604E0FFF7EAFAAA
:101BD000801B022809D838688007F7D50EE0C0F8C6
:101BE00000A0FFF7DFFA064605E082E0FFF7DAFA29
:101BF000801B02287DD838688007F7D420784007FA
:101C000068D5DFF8CCB100270BF13C0BDBF8000006
:101C1000C0000BD4DBF8001041F08051CBF800106D
:101C2000DBF80000012700F0805000906B4E306818
:101C3000C00510D4306840F480703060FFF7B2FA0D
:101C4000009005E0FFF7AEFA0099401A022850D83C
:101C50003068C005F6D55E4EA0686C3601280FD0FE
:101C60000528306810D020F001003060306820F086
:101C700004003060A068B8B1FFF794FA00900FE05C
:101C8000306840F00100F4E740F004003060F7E70E
:101C9000FFF788FA0099411A41F28830814266D8EC
:101CA00030688007F4D50EE0FFF77CFA009007E07B
:101CB000FFF778FA0099411A41F28830814256D8EC
:101CC00030688007F4D42FB1DBF8001021F0805188
:101CD000CBF80010A069C8B33D49091D0968C1F3DC
:101CE000810102294AD00228504607D0C8F8600076
:101CF00000E03CE0FFF756FA04463BE04746C8F8F0
:101D00006000FFF74FFA064605E000BFFFF74AFA0A
:101D1000801B02282BD828688001F7D4D4E907015A
:101D20000843A16A2E4A490802EB0141626A41EA6E
:101D30008211084394F82C1040EA0161C9F80010A0
:101D400001203866FFF72EFA044606E03EE000BFA9
:101D5000FFF728FA001B022809D828688001F7D568
:101D600034E000BFFFF71EFA001B022802D903204F
:101D7000BDE8F88F28688001F4D427E00128F7D067
:101D8000D9F80000E26900F4800191421CD1226A76
:101D900000F03F01914217D147F6C071626A0140DD
:101DA000B1EB821F10D1A26A4FF0FF3300F4403133
:101DB00003EB5202B1EB024F06D194F82C1000F065
:101DC0007060B0EB016F01D00120D1E70020CFE7B8
:101DD0000438024000004742800E47420070004035
:101DE0000000FFFF7047704770B590F83C20012A53
:101DF00032D0012480F83C40022280F83D20036864
:101E00005A689D6822F070060A6832435A60134B84
:101E100002689A4214D0B2F1804F11D0104B9A420E
:101E20000ED0104B9A420BD00F4B9A4208D00F4B5A
:101E30009A4205D00E4B9A4202D00E4B9A4204D1E0
:101E4000496825F080031943916080F83D400021E6
:101E500080F83C10084670BD022070BD00000140B3
:101E60000004004000080040000C00400004014055
:101E7000004001400018004010B5040003D094F861
:101E80003D0010B107E0012010BD002084F83C00A7
:101E9000204600F01FF8022084F83D00211D206834
:101EA00002F0F6F8012084F8460084F83E0084F839
:101EB0003F0084F8400084F8410084F8420084F830
:101EC000430084F8440084F8450084F83D00002075
:101ED00010BD000008B5234A01682348914207D18C
:101EE000016841F480310160006800F4803009E04D
:101EF0001E4A914208D1016841F400310160006836
:101F000000F40030009008BD194A914207D10168E1
:101F100041F480210160006800F48020F2E712485B
:101F2000144A001F914211D1016841F04001016043
:101F30000068002200F04000009005212B20FFF7F0
:101F40005DFCBDE808402B20FFF74ABC0A4A9142DD
:101F5000D9D1016841F080010160006800F0800083
:101F6000D0E70000004001404438024000440140F6
:101F70000048014000180040001C004090F83D104F
:101F8000012901D001207047022180F83D1001682D
:101F9000CA6842F00102CA6000681149884214D040
:101FA000B0F1804F11D00F4988420ED00E498842BF
:101FB0000BD00E49884208D00D49884205D00D4902
:101FC000884202D00C49884204D1816801F007019F
:101FD000062903D0016841F001010160002070472B
:101FE000000001400004004000080040000C0040D8
:101FF00000040140004001400018004070B5044654
:1020000090F83C000025012817D0012684F83C6098
:10201000022084F83D002068826822F0770222F4D2
:102020007F4282600868502838D00DDC20284FD0CD
:1020300005DC90B3102811D14AE0022070BD302891
:1020400046D040280AD13BE060282FD070280DD020
:10205000B0F5805F03D0B0F5005F12D0012584F8A1
:102060003D60002084F83C00284670BDCB68D1E973
:102070000121206802F07DF82068816841F0770135
:1020800009E0CB68D1E90121206802F072F82068EC
:10209000816841F480418160E1E719E0CA684968DC
:1020A000206802F03BF95021206806E0CA684968C0
:1020B000206802F044F96021206802F064F8CEE75D
:1020C000CA684968206802F029F940212068F4E7CD
:1020D000226801461046F0E72DE9F0410D46040064
:1020E00003D094F83D0018B108E00120BDE8F0816C
:1020F000002084F83C00204600F040F8022084F8DC
:102100003D002068816844F2070291438160211DEF
:10211000206801F0BDFF226890689169166A2B68FB
:10212000AF69034340F20330814341EA0721A868C5
:10213000EF6908434FF6FC418843E96840EA07200D
:10214000014328692F6A000140EA073008436968A3
:102150006D6926F0AA0646EA0515294393602268B0
:10216000906154F8460B0162012004F81F09E075E4
:102170002076E0762077A0750020B7E7F0B587B02D
:10218000044614216846FEF7F6F82B49226800241D
:10219000294810390225294EB2F1804F1ED0284B14
:1021A0009A4219D1026842F002020260006800F00F
:1021B00002000590086840F002000860086869465F
:1021C00000F00200059030200090CDE90154304627
:1021D000CDE90345FEF7E8FE07B0F0BD026842F026
:1021E00001020260006800F001000590086840F0FC
:1021F00001000860086800F001000590086840F0E0
:10220000020008600868012700F0020005904FF402
:1022100000400090CDE90154CDE9034769460948E3
:10222000FEF7C2FE08200090CDE90154CDE9034736
:1022300069463046CEE700004038024000040240C4
:10224000000400400000024070B590F83E60044673
:1022500090F83F5090F8423090F84320022021B18E
:1022600004290ED0012E1BD114E0012E18D1012B10
:1022700016D184F83E0084F8420001220021206833
:1022800020E0012D0CD1012A0AD184F83F0084F806
:10229000430014E0012D03D1012B01D1012A01D00B
:1022A000012070BD84F83E0084F83F0084F84200AD
:1022B00084F8430001220021206801F04DFF012233
:1022C0000421206801F048FF2068016841F0010105
:1022D0000160002070BD704770B504460068016958
:1022E0004FF00005C943890715D4C168C943890760
:1022F00011D4E91E016101202077206880698007E0
:10230000204602D0FFF7E7FF04E000F0EBF820469C
:1023100000F07DF9257720680169C943490717D482
:10232000C168C943490713D46FF004010161022059
:1023300020772068806910F4407F204602D0FFF7A4
:10234000CAFF04E000F0CEF8204600F060F92577DF
:1023500020680169C943090716D4C168C943090740
:1023600012D46FF008010161042020772068C06951
:102370008007204602D0FFF7AEFF04E000F0B2F87D
:10238000204600F044F9257720680169C943C90651
:1023900017D4C168C943C90613D46FF01001016195
:1023A000082020772068C06910F4407F204602D0C2
:1023B000FFF791FF04E000F095F8204600F027F9C0
:1023C000257720680169C943C90708D1C168C94395
:1023D000C90704D1891E0161204600F0BBF92068BD
:1023E0000169C943090609D4C168C943090605D46E
:1023F0006FF0800101612046FFF7F4FC206801695D
:10240000C943490609D4C168C943490605D46FF0D8
:1024100040010161204600F03BFA20680169C94390
:1024200089060BD4C168C943890607D46FF020011F
:1024300001612046BDE87040FFF7D5BC70BD0000CB
:1024400070B586B0044614216846FDF794FF1F4816
:10245000256800211E4A02230324854210D11068FA
:1024600040F010001060106800F01000059060202F
:102470000090CDE90131CDE90314694615480DE01E
:10248000154E1648B5420DD1156845F00205156088
:10249000126802F00202059282150FE0FEF784FD39
:1024A00006B070BD0E4EB542FAD1156845F0020572
:1024B0001560126802F00202059272150092CDE9D1
:1024C0000131CDE903146946E8E70000004001400E
:1024D0003038024000100240004401400004024035
:1024E00000480140704770B5044690F83C00002653
:1024F0000D4601280FD0012084F83C006AB1042A5F
:102500001DD0082A2FD00C2A3FD00126002084F8A5
:102510003C00304670BD022070BD206801F03CFEDA
:102520002068816941F0080181612068816921F09A
:1025300004018161206881692A69114311E02068E2
:1025400001F05AFE2068816941F4006181612068D0
:10255000816921F480618161206881692A6941EA89
:1025600002218161D2E7206801F07CFE2068C16908
:1025700041F00801C1612068C16921F00401C16115
:102580002068C1692A69114311E0206801F09EFEAC
:102590002068C16941F40061C1612068C16921F40A
:1025A0008061C1612068C1692A6941EA0221C16173
:1025B000ACE710B5040003D094F83D0010B107E07B
:1025C000012010BD002084F83C00204600F01EF8D9
:1025D000022084F83D00211D206801F059FD0120F2
:1025E00084F8460084F83E0084F83F0084F84000F8
:1025F00084F8410084F8420084F8430084F84400E1
:1026000084F8450084F83D00002010BD70477047F5
:1026100010B50446022249B104290ED0082913D06E
:1026200094F84100012816D0012010BD94F83E0016
:102630000128F9D184F83E200FE094F83F000128EA
:10264000F2D184F83F2008E094F840000128EBD153
:1026500084F8402001E084F841200122206801F044
:102660007BFD16492068164A884201D0904203D16A
:10267000436C43F4004343642068884213D0B0F1B4
:10268000804F10D00F4988420DD00F4988420AD0A0
:102690000E49884207D0904205D00D49884202D0A9
:1026A0000C49884204D1816801F00701062903D052
:1026B000016841F001010160002010BD00000140EF
:1026C000000401400004004000080040000C0040ED
:1026D000004001400018004030B504460D46006837
:1026E000002201F039FD194B41F2111120688A10C6
:1026F000984202D0164B984209D1036A0B4206D188
:10270000036A134203D1436C23F4004343642068FB
:10271000036A0B4206D1016A114203D1016821F01C
:102720000101016001203DB1042D08D0082D09D020
:1027300084F84100002030BD84F83E00FAE784F8B8
:102740003F00F7E784F84000F4E700000000014094
:10275000000401402DE9F0410646006845498842E1
:102760007ED1FEF7F1F9444D2880FEF715FA434C6F
:102770006880434F2068002819DA01F02BF8B5F97A
:10278000001094ED000A00EE901A05F10800B8EE72
:10279000C00AF8EEE00A01F0ABFBBDEEC00A10EE95
:1027A000100A002800DC4042396888631CE002D12E
:1027B00001F02CF818E001F01BF8B5F9001094EDC9
:1027C000000A00EE901A2C48B8EEC00A0830F8EE65
:1027D000E00A01F08DFBBDEEC00A10EE100A0028E1
:1027E00000DC4042396848636068002819DA01F06B
:1027F0001BF8B5F9021094ED010A494200EE901A57
:102800001D48B8EEC00A2430F8EEE00A01F070FB73
:10281000BDEEC00A10EE100A002800DC4042194943
:102820001CE002D101F020F81AE001F00DF8B5F932
:10283000021094ED010A494200EE901A0E48B8EEDB
:10284000C00A2430F8EEE00A01F052FBBDEEC00AE7
:1028500010EE100A002800DC40420B49096848636A
:102860000A493068884203D1BDE8F041FEF72EBF27
:10287000BDE8F08100180040000000201401002095
:102880005C040020EC040020A40400200020004090
:102890007047704710B504460068406994F83D10D1
:1028A000C0F3C010212911D180B12068143050E844
:1028B000001F21F0800140E80012002AF5D1606B72
:1028C00008B1FEF791F9204601F013FE2068406937
:1028D00094F83E10C0F38010222911D180B12068F5
:1028E000143050E8001F21F0400140E80012002A97
:1028F000F5D1A06B08B1FEF777F9204601F0D2FDC3
:10290000002010BD70470000F8B501680446086853
:10291000CA684B6910F00F0F4FF0000559D003F053
:10292000010602F49077374365D0C10705D0D10581
:1029300003D5216C41F001012164410705D5D90778
:1029400003D0216C41F002012164810705D5D9072C
:1029500003D0216C41F004012164010707D502F086
:102960002001314303D0216C41F008012164216C26
:1029700000293AD0800604D5900602D5204601F001
:10298000C6FD20684069216CC0F38010090700D49F
:1029900060B3204601F086FD20684069400621D5DD
:1029A0002068143050E8001F21F0400140E8001278
:1029B000002AF5D1A06BA8B16C490165A06BFEF7A8
:1029C0005CF9002811D0A06B016D01B0BDE8F040AA
:1029D000084783060FD593060DD52046BDE8F8407D
:1029E00001F095BD2046FFF78DFFF8BD2046FFF7AB
:1029F00089FF2564F8BD266B2023012E79D1C606F8
:102A000077D5D60675D508684868009048694006AD
:102A100040D5A16B086840680004000CEAD0A28D84
:102A20008242E7D9E085C869B0F5807F2DD0206863
:102A30000C3050E8001F21F4807140E80012002A99
:102A4000F5D12068143050E8001F21F0010140E862
:102A50000012002AF5D12068143050E8001F21F040
:102A6000400140E80012002AF5D184F83E30256389
:102A700020680C3050E8001F21F0100140E80012DF
:102A8000002AF5D1A06BFEF7AFF8A08DE18D401ABA
:102A900081B229E0A08DE18D401A81B2E08D00283D
:102AA000A8D00029A6D020680C3050E8002F22F4CE
:102AB000907240E80026002EF5D12068143050E8CE
:102AC000002F22F0010240E80026002EF5D184F804
:102AD0003E30256320680C3050E8002F22F01002B1
:102AE00040E80023002BF5D12046FFF7D2FEF8BDC9
:102AF000FFE705062BD5150629D594F83D002128BA
:102B0000F5D1A068B0F5805F01D12069B0B1206A2D
:102B1000411C2162216800784860E08C401E00045E
:102B2000000CE084E3D12068C16821F08001C1601D
:102B30002068C16841F04001C160D8E7206A008880
:102B4000C0F308004860206A801C2062E5E7400668
:102B5000CDD55006CBD5CA68204622F04002CA60C7
:102B600084F83D3000F008F9C1E700006343000835
:102B700070B5040004D094F83D00002510B106E0C3
:102B8000012070BD84F83C50204600F023F824203A
:102B900084F83D002068C16821F40051C1602046DE
:102BA00001F016FD2068016921F49041016120685F
:102BB000416921F02A0141612068C16841F4005156
:102BC000C1602564202084F83D0084F83E00002088
:102BD00070BD00002DE9F04186B00646142168461C
:102BE000FDF7C9FB3049306888425AD12F4800248C
:102BF000016841F010010160006800F010000590CC
:102C00002A481438016841F00101016000686946F2
:102C100000F0010005904FF4C06000900220CDE963
:102C2000010403200390072004902148FEF7BCF91B
:102C3000214D20484FF000672860C5E901744FF42A
:102C40008068C5E9034880156C61C5E906402C62BF
:102C500028466C62FEF7F4F808B1FDF773FFB56320
:102C6000AE63154D134860357830E5E80207402023
:102C7000A5E81101104845F814496030AC61EC61D9
:102C80002C626C62FEF7DCF808B1FDF75BFF756340
:102C9000002205212520AE63FEF7B0FD2520FEF7BA
:102CA0009FFD06B0BDE8F0810010014044380240AD
:102CB00000000240406402400806002090F83E30C8
:102CC000202B0ED159B152B190F83C30012B08D0D5
:102CD000012380F83C300023036301F0FFBC012096
:102CE00070470220704770477047000070B5044677
:102CF00090F83D00202836D191B38AB394F83C0077
:102D0000012830D0012084F83C002162A284E284B2
:102D100000252564212084F83D00636B1348D863A7
:102D2000636B13481864636B1248D864606B134676
:102D300005652668606B321DFEF7ECF821686FF0C0
:102D40004000086084F83C502068143050E8001FB0
:102D500041F0800140E80012002AF5D1002070BD4A
:102D6000FFE70120FBE70220F9E7000059440008D3
:102D70009B4400087343000870477047FEE70168F2
:102D80004A69D24352050FD46FF480624A61002130
:102D900040F8301F202242738173026942F004021E
:102DA0000261017301207047002070472DE9F84F40
:102DB0000446006889460B9D01689846174641F411
:102DC000806101602068016841F4807101600095B4
:102DD0004FF0011B0022594620460A9B00F0DEF806
:102DE0004FF4007A40B120680068C00501D5C4F8EE
:102DF00040A00320BDE8F88F216809F0FE000861BB
:102E00002B46284920460A9A00F0FCF8F0BB2068BF
:102E10004169806900902A4620460A9900F070F9BD
:102E200040B1206C04283AD12068016841F4007157
:102E3000016034E0FEB2B8F1010F09D02168380A10
:102E400008612A4620460A9900F05AF90028E8D17C
:102E5000206806612A4620460A9900F051F90028A8
:102E6000DFD12068016841F4807101600095002283
:102E7000594620460A9B00F091F80028B3D12168FA
:102E800009F0FF0040F00100086100E007E02B4678
:102E9000044920460A9A00F0B5F80028AAD001207B
:102EA000A8E70000020001002DE9F843044600688D
:102EB0000D46DDE9089701689846164641F4807191
:102EC00001604B4600224FF001112046009700F0B0
:102ED00065F848B120680068C00502D54FF400705D
:102EE00020640320BDE8F883216805F0FE00086136
:102EF0003B464A461549204600F084F888B92068C8
:102F00004169806900903A464946204600F0F8F849
:102F100048B1206C042804D12068016841F4007194
:102F200001600120DEE7F5B2B8F1010F09D0216898
:102F3000300A08613A464946204600F0E1F8002888
:102F4000E7D1206805610020CCE700000200010005
:102F500070B516460D4604460DE02046FFF70FFFFC
:102F600008B1012070BD681C05D0FEF71BF9801B5D
:102F7000A84207D835B120684069C0434007ECD467
:102F8000002070BD002044F8300F20216173A07331
:102F9000216941F0200121612073E2E72DE9F0472A
:102FA0001E4690460D460446C1F30747DDF82090C3
:102FB00008E0701C06D0FEF7F5F8A0EB0900B0425F
:102FC0000FD876B12068012F18D0806925EA00005B
:102FD0000004000C14D000214145EAD00020BDE8D7
:102FE000F087002044F8300F20216173A07321691D
:102FF00041F02001216120730120F0E74069E5E7FD
:103000000121E9E72DE9F0479A4691460E4604462C
:1030100000254FF02008C1F3074725E020684069EC
:10302000C043400514D42068016841F40071016078
:1030300021686FF480604861256384F83D8084F8DE
:103040003E50206C40F00400206484F83C501FE0A7
:10305000B9F1FF3F08D0FEF7A5F8A0EB0A014945FA
:103060000CD8B9F1000F09D02068012F13D0806966
:1030700026EA00000004000C0BD0CFE744F8305FD4
:1030800084F80D80A573206940F02000206125732D
:103090000120BDE8F0874069EAE72DE9F04100250D
:1030A00090460E460446202717E04069C043C006FC
:1030B0000CD454F8301B6FF01000486144F81059DC
:1030C0006777A577206A2062257717E0FEF76AF810
:1030D000A0EB0800B04208D83EB120684169C9435E
:1030E0004906E2D40020BDE8F08144F8305F677300
:1030F000A573206940F02000206125730120F2E7CC
:1031000070B516460D4604460DE02046FFF737FE23
:1031100008B1012070BD681C05D0FEF743F8801B84
:10312000A84207D835B120684069C0430006ECD4F6
:10313000002070BD002044F8300F20216173A0737F
:10314000216941F0200121612073E2E72DE9F04778
:10315000014620480D228246FDF7F4F81D4DDFF8A8
:10316000788000240D3D08F10209285D552824D1FE
:103170002F197878AA2820D1BE783846F11C02F0A1
:10318000FBFBA1192944C978814216D1002042468F
:103190004B4621182944CE78165449791954401CBD
:1031A00000B20228F5DB0C48B8F90010801D016060
:1031B000B9F900104160F979017206480D225146B3
:1031C0000D38FDF7BFF8641C24B20D2CCDDBBDE833
:1031D000F0870000444800200E01002010B504468E
:1031E0002DED068B8EB00CA902A8CDE900010BAB2A
:1031F00003AA09A907A802F049F828B14FF0FF3047
:103200000EB0BDEC068B10BDBDF80800C00546D55C
:103210009DED030AF8EEC00A9FED220A60EE809A47
:10322000DDED040AF8EEE00A60EE808ADDED050AC5
:10323000F8EEE00A20EE809ADDED060AF8EEE00AEC
:1032400020EE808A29EEA90A08EEA80A09EE490AAA
:1032500008EE480A10EE100AFDF783FA29EE880AF4
:10326000F0EE000A41EC1A0B08EE890A20EE200A63
:1032700010EE100AFDF775FA41EC100BB0EE4A1A89
:10328000F0EE6A1A01F02CFC9FED071B51EC100BBD
:1032900053EC112BFDF72EF9FDF7A6FA2060002064
:1032A000AEE70000000080306666666666A64C40A9
:1032B00038B5684602F0C2FF10B14FF0FF3038BD9C
:1032C000782003F005FD10B16FF0010038BD7820C3
:1032D00002F0E0FE10B16FF0020038BD642003F090
:1032E000ABFC10B16FF0030038BD01F0C5FF10B1A9
:1032F0006FF0040038BD1948044602F027FE054669
:10330000E01C02F023FE45EAC005A01D02F01EFEEF
:1033100045EA801080B202F063F910B16FF0050049
:1033200038BD40F2731001F07FFE10B16FF006005F
:1033300038BD642002F0BCF810B16FF0070038BD52
:1033400003F0CEFF10B16FF0080038BD012003F08C
:103350006FFB0028F9D06FF0090038BDFC00002099
:103360000D4808B5016841F4800101600068002241
:1033700000F48000009005213A20FEF73FFA3A2041
:10338000FEF72EFA002205214620FEF737FABDE8A7
:1033900008404620FEF724BA3038024010B5A4B0E9
:1033A0001C221C496846FCF7CDFF0021684603F04B
:1033B00043FD194C17491C2260601C3107A8FCF71B
:1033C000C1FF002107A803F037FD1249A0601C22AD
:1033D00038310EA8FCF7B6FF00210EA803F02CFD33
:1033E0000C49E0601C22543115A8FCF7ABFF00210A
:1033F00015A803F021FD074920611C2270311CA88B
:10340000FCF7A0FF00211CA803F016FD606124B0AA
:1034100010BD00004C7A00084000002070B586B056
:1034200014216846FCF7A7FF1E480024016841F0FC
:1034300010010160016801F010010591016841F07F
:1034400080010160016801F080010591016841F08F
:1034500002010160016801F002010591016841F07B
:1034600008010160016801F008010591016841F05F
:103470000101016000680C4E00F001004FF4C045EE
:103480000590002229463046FDF786FE0120009572
:10349000CDE90104694630460394FDF785FD06B089
:1034A00070BD000030380240000C02400D4810B5DD
:1034B0000B4901600C49416000214FF4804281605A
:1034C000C0E9031241618161C1610162FDF770FED3
:1034D000002803D0BDE81040FDF734BB10BD00004C
:1034E0000058004078030020A086010010B588B085
:1034F0001C216846FCF73FFF144813490024C0E92B
:10350000001444F29F11C0E9024104618461FEF796
:10351000B3FC08B1FDF716FB0C48FFF74AF808B1F9
:10352000FDF710FB6020CDE90004029400226946FB
:1035300006480494FEF7D7FF08B1FDF703FB0348E4
:10354000FEF77EFF08B010BD00440140A404002037
:1035500010B588B01C216846FCF70DFF14481349CC
:103560000024C0E9001444F29F11C0E90241046143
:103570008461FEF781FC08B1FDF7E4FA0C48FFF71F
:1035800018F808B1FDF7DEFA6020CDE900040294D6
:103590000022694606480494FEF7A5FF08B1FDF72E
:1035A000D1FA0348FEF74CFF08B010BD00480140B7
:1035B000EC0400201FB500211048009101910291F8
:1035C0000D4A0391026044F29F12C0E901213122A9
:1035D000C0E903218161FEF74FFC08B1FDF7B2FAA3
:1035E0004FF48050009069460448FEF707FD00281C
:1035F00001D0FDF7A7FA1FBD0018004034050020D8
:103600000B4810B509490160A721416000214FF620
:10361000FF72C0E9021201618161FEF72DFC0028F2
:1036200003D0BDE81040FDF78DBA10BD001C00406E
:103630007C05002010B58CB024216846FCF79BFE69
:103640000024154809944FF080410A94C0E9001401
:10365000611EC0E90241046184610320CDE90004D8
:103660000120CDE902040494CDE9054007946946A0
:1036700009480894FEF730FD08B1FDF763FA099494
:1036800009A905480A94FEF7AFFB002801D0FDF711
:1036900059FA0CB010BD0000CC03002010B58CB05E
:1036A00024216846FCF767FE002416480994144953
:1036B0000A94C0E900144FF6FF71C0E902410461A9
:1036C00084610320CDE900040120CDE902040494C3
:1036D000CDE90540079469460A480894FEF7FCFCCA
:1036E00008B1FDF72FFA099409A906480A94FEF7D4
:1036F0007BFB002801D0FDF725FA0CB010BD0000BF
:10370000000400401404002010B58CB0002407947D
:10371000089409941C2168460A94FCF72CFE1D4865
:103720001B49C0E9001444F29F11C0E90241046141
:103730008461FEF7A1FB08B1FDF704FA4FF4805055
:10374000079007A91348FEF759FC08B1FDF7FAF9ED
:103750001048FEF72EFF08B1FDF7F4F96020CDE91F
:1037600000040294002269460A480494FEF7BBFE56
:1037700008B1FDF7E7F9042269460648FEF7B3FEF3
:1037800008B1FDF7DFF90348FEF75AFE0CB010BD93
:10379000004001405C0400200C4810B50A4901605B
:1037A0004FF4E1314160002181600C22C160C0E929
:1037B00004128161C161FFF7DBF9002803D0BDE885
:1037C0001040FDF7BFB910BD00100140C405002036
:1037D000FEE7000010B504210448FEF719FFBDE81C
:1037E000104000210148FEF777BF00005C04002074
:1037F00010B500210448FEF70BFFBDE8104004217E
:103800000148FEF769BF00005C04002010B50021EC
:103810000448FEF761FFBDE8104004210148FEF7AF
:103820005BBF00005C04002010B500210448FEF7D7
:10383000EFFEBDE8104000210248FEF74DBF00003A
:10384000EC040020A404002010B500210448FEF779
:10385000DFFEBDE8104000210248FEF73DBF00003A
:10386000A4040020EC04002010B500210448FEF759
:1038700033FFBDE8104000210248FEF72DBF0000D5
:10388000A4040020EC040020142003F0C9FAFBE794
:10389000FEE7000010B50021074C0A46002004EBAB
:1038A000C1131A54401CC0B28028FAD3491CC9B2B3
:1038B0000829F3D310BD000000440020F0B50B44EC
:1038C00024E0044685181DE07F2C19D8002917DB59
:1038D0003F2915DCCE1701EB56764FEAE60C0D4F6B
:1038E00026F0070607EBCC172744A1EB060E97F846
:1038F00000C0012606FA0EF62CEA060C87F800C076
:10390000641C24B2A542DFDC491C09B28B42D8DC1E
:10391000F0BD00000044002008B50021082334A2B7
:10392000084600F075FA082333A21121002000F0A8
:103930006FFA082332A20021492000F069FA082317
:103940002FA21121522000F063FA08232EA2212178
:10395000002000F05DFA06232DA23621002000F0A1
:1039600057FA06232BA23621252000F051FA08240D
:10397000294FDFF8A880DFF8A8902A4D062600948A
:103980000323B7F900200021292000F012FA009447
:10399000B8F90000032342421121312000F009FA56
:1039A000D9F80000FCF7DDFE41EC100B21210223C9
:1039B00003220846009400F007F92868FCF77BFE14
:1039C00041EC100B0023032236211320009600F057
:1039D000FBF82868FCF76FFE41EC100B0023032274
:1039E00036213720009600F0EFF800F027FAC6E7FE
:1039F0006C6566743A00000072696768743A00008A
:103A0000636D2F73000000007961773D00000000B6
:103A1000735F4C00735F5200000000200200002022
:103A2000400000201401002010B500204FF47A72ED
:103A30000021491C9142FCD3401C9042F8D3012044
:103A400000F010FABDE81040012000F019BA70B57E
:103A500000240646802525FA04F0304000D00120DD
:103A600000F00EFA012000F0FDF9002000F0FAF954
:103A7000641CE4B2082CEED3012000F0F3F9BDE899
:103A80007040002000F0EEB910B5012000F0F8F908
:103A9000012000F0E7F9002000F0F2F9BDE8104045
:103AA000002000F0DFB910B5002000F0E9F9012096
:103AB00000F0D8F9BDE81040012000F0E1B910B5E0
:103AC000FFF7B2FFAE2000F0E9F9D52000F0E6F9EB
:103AD000802000F0E3F9A82000F0E0F93F2000F09A
:103AE000DDF9D32000F0DAF9002000F0D7F940200A
:103AF00000F0D4F9A12000F0D1F9C82000F0CEF9EF
:103B0000DA2000F0CBF9122000F0C8F9812000F093
:103B1000C5F9CF2000F0C2F9D92000F0BFF9F1209B
:103B200000F0BCF9DB2000F0B9F9302000F0B6F964
:103B3000A42000F0B3F9A62000F0B0F98D2000F029
:103B4000ADF9142000F0AAF9AF2000F0A7F9FFF7B3
:103B5000A1FEBDE8104000F071B90246012000E06E
:103B60005043491EFCD2704710B50C4640F0B000DF
:103B700000F094F9102040EA141000F08FF904F0DE
:103B80000F00BDE8104000F089B9000008B5082B0F
:103B90000DD0062B0AD10A4B02EB420203EB420284
:103BA000C03A00920823062200F080F808BD054BB9
:103BB00003EB0212A2F50072102300920822F3E731
:103BC000E8800008F87A00082DE9F04F9A462DEDBC
:103BD000028BB0EE408AF0EE608A81B09FED310B2F
:103BE00015468B46074653EC102B51EC180B0C9CDA
:103BF000FCF7E2FD234605D82B2259463846FFF74D
:103C0000C5FF0AE02D2259463846FFF7BFFF51ECA9
:103C1000180B81F0004141EC180B51EC180BFCF72C
:103C200087FD8146FCF758FD53EC182BFCF75FFC31
:103C300041EC180B51460A20FFF78FFF8046FCF736
:103C40004BFD53EC182BFCF755FC41EC100B01F02D
:103C50003FF851EC100BFCF76BFDB0FBF8F106469A
:103C600001EB0902381900B22B465946009400F0C6
:103C70007DF8681C00FB047000B223462E225946D2
:103C8000FFF784FFAD1C05FB047000B253463246BB
:103C90005946009400F06AF801B0BDEC028BBDE813
:103CA000F08F000000000000000000002DE9F04F40
:103CB0001F4616460C4682460025FFF7FFFD7F1E75
:103CC000F81707EB50700121DFF89CB001EBE0071B
:103CD00045E000203FE000BF0AEB00037F2B38D80F
:103CE000E11704EB5171CA1021F00701611A002C91
:103CF00003DA521E083112B209B202EB0509B9F11A
:103D0000070F10D80BEBC91E1EF8032015FB06F891
:103D1000DDF824C0844418F80CC00CFA01FC42EA17
:103D20000C020EF8032009F10102072A11D80BEB4F
:103D3000C91202EB030898F8803015FB06FC099ABB
:103D4000C1F1080102441CF80220CA40134388F85C
:103D50008030401CC0B2B042BED36D1CEDB2AF4249
:103D6000B7DCBDE8F08F0000004400202DE9F047EB
:103D700000241D4690468A4681460A27089E14E084
:103D8000291B0A20491EFFF7E8FEB8FBF0F0B0FB44
:103D9000F7F107FB110204FB069000B233465146CF
:103DA0003032FFF7F3FE641CE4B2AC42E8D3BDE866
:103DB000F0872DE9F0471E46DDF8208014008A4682
:103DC0008146434604D42B22FFF7E0FE254603E05C
:103DD0002D22FFF7DBFE654200240A2714E0311B89
:103DE0000A20491EFFF7B9FEB5FBF0F0B0FBF7F172
:103DF00007FB1102641C04FB089000B243465146C5
:103E00003032FFF7C3FEE4B2B442E8D3BDE8F08736
:103E10002DE9F0411E46154688460746002408E075
:103E200014FB067000B233464146FFF7AFFE641C38
:103E3000E4B22A5D002AF3D1BDE8F08170B5084DE7
:103E4000002400212046FFF78FFE05EBC4108021DF
:103E500000F035F8641CE4B2082CF2D370BD000009
:103E60000044002010B502464FF480410348FDF79E
:103E700093F9BDE81040012001F09AB8000C02400F
:103E800010B502464FF400510348FDF785F9BDE82F
:103E90001040012001F08CB8000C024010B504461F
:103EA000FFF7F2FD7820FFF7D2FD0020FFF7CFFDEE
:103EB0002046FFF7CCFDBDE81040FFF7F4BD70B51C
:103EC0000D460646FFF7E0FD7820FFF7C0FD4020D5
:103ED000FFF7BDFD002404E0305DFFF7B8FD641C72
:103EE000E4B2AC42F8D3BDE87040FFF7DCBD00009F
:103EF00070EE600A164AC0ED030A90ED060A30EE35
:103F0000200A10EE101A80ED060A914202DD9FEDA4
:103F1000110A06E010EE101A0F4A914203D99FEDE4
:103F20000F0A80ED060A90ED000A90ED011AD0ED1F
:103F3000061A20EE200A01EE210A90ED041AD0EDB7
:103F4000021AC0ED040A31EE601A01EE810A7047D0
:103F50000000FA440000FA440000FAC40000FAC469
:103F60000B4C0C4D0C4E0D4F95ED000A6378BDEED9
:103F7000C00A10EE100A02B23088404201B2B7F90E
:103F8000000003F031FA142002F04AFFECE70000D1
:103F9000200100204000002002000020000000203E
:103FA000012002F03DFFFBE710B5502080F311889F
:103FB000BFF34F8FBFF36F8F03F080FC18B104493C
:103FC0004FF080500860002080F3118810BD000081
:103FD00004ED00E030B593B030216846FCF7CBF932
:103FE00014210CA8FCF7C7F91D480025016841F011
:103FF00080510160006800F08050119019480168FC
:1040000041F4804101600068022400F48040119076
:104010000120039010200490009406940820CDE91C
:104020000750A820CDE9090404200B906846FDF74D
:1040300023FD08B172B6FEE70CA90F2081E831001C
:104040004FF4A0500F904FF48050109005210CA811
:10405000FDF706FC002801D072B6FEE713B030BDB4
:1040600040380240007000400248016841F470018D
:104070000160704788ED00E00148FEF72DB90000AF
:10408000340500200148FEF727B90000C8060020CB
:10409000F0B50268254C264D264E274F274B4FF092
:1040A000804CA04209D0604507D0A84205D0B0425C
:1040B00003D0B84201D0984204D122F0700E4A6871
:1040C00042EA0E02A0421BD0604519D0A84217D088
:1040D000B04215D0B84213D0984211D0184DA84222
:1040E0000ED0184DA8420BD0174DA84208D0174D3E
:1040F000A84205D0164DA84202D0164DA84203D1C1
:1041000022F44075CA682A434D6922F080022A438E
:1041100002608A68C2620A688262A04201D0984244
:1041200001D10969016301214161F0BD0000014035
:104130000004004000080040000C00400004014062
:104140000040014000440140004801400018004088
:10415000001C00400020004010B501F01F030121A9
:10416000046A99408C430462016A9A4011430162D7
:1041700010BD10B5846842EA032224F47F440A4348
:104180002243826010BD826822F070020A4342F02E
:104190000701816070470000F0B5026A22F0010259
:1041A0000262036A42688469124E24F073050C6847
:1041B0002C4323F002058B682B430D4DA84201D000
:1041C000B04205D123F00807CB683B4323F004033A
:1041D000A84201D0B04205D14D6922F44072154386
:1041E0008A692A4342608461496841630362F0BD81
:1041F0000000014000040140F0B5026A22F0100204
:104200000262026A436884690D6824F4E64444EA61
:1042100005248D6822F0200242EA05120F4D104E4F
:10422000A84201D0B04206D1CF6822F0800242EA13
:10423000071222F04002A84201D0B04207D14D69D6
:1042400023F4406343EA85038D6943EA85034360B1
:104250008461496881630262F0BD00000000014092
:1042600000040140F0B5026A22F480720262026A20
:104270004368C46922F4007224F073050C68124E7E
:104280002C438D6842EA05220E4DA84201D0B0426F
:1042900006D1CF6822F4006242EA072222F480624B
:1042A000A84201D0B04207D14D6923F4405343EAFC
:1042B00005138D6943EA05134360C4614968C1630E
:1042C0000262F0BD000001400004014030B5026A06
:1042D00022F480520262046A4268C3690D6823F4C2
:1042E000E64343EA05238D6824F4005444EA053488
:1042F000084DA84202D0084DA84204D14D6922F4CD
:10430000804242EA85124260C361496801640462E6
:1043100030BD0000000001400004014010B5036AF8
:10432000046A24F001040462846924F0F00444EA7D
:10433000021423F00A020A438461026210BD10B520
:10434000036A23F0100303628369046A23F4704351
:1043500043EA023224F0A00343EA011182610162C0
:1043600010BD10B5806B0021C185C184FEF7CAFA6B
:1043700010BD70B5846B2068406994F83D10C0F39F
:10438000C0100025212904D118B1E584204600F091
:10439000B0F82068406994F83E10C0F380102229DC
:1043A00004D118B1E585204600F07CF8206C40F07F
:1043B000100020642046FEF7A5FA70BD10B5014636
:1043C000806B09680968C9052FD40021C18501687F
:1043D0000C3151E8002F22F4807241E80023002BB9
:1043E000F5D10168143151E8002F22F0010241E8B3
:1043F0000023002BF5D10168143151E8002F22F081
:10440000400241E80023002BF5D1202180F83E1026
:10441000016B012909D101680C3151E8002F22F00C
:10442000100241E80023002BF5D1016B012902D0D5
:10443000FEF759FC10BD818DFEF72BFA10BD10B5AB
:10444000806B016B012902D0FEF74EFC10BD818DFF
:104450004908FEF71EFA10BD10B50146806B0968C9
:104460000968C90516D40021C1840168143151E8D6
:10447000002F22F0800241E80023002BF5D10168D3
:104480000C3151E8002F42F0400241E80023002B9C
:10449000F5D110BDFEF770FC10BD10B5806BFEF7B6
:1044A0006CFC10BD01680C3151E8002F22F49072B1
:1044B00041E80023002BF5D10168143151E8002FA9
:1044C00022F0010241E80023002BF5D1016B012904
:1044D00009D101680C3151E8002F22F0100241E8A7
:1044E0000023002BF5D1202180F83E10002101632C
:1044F000704701680C3151E8002F22F0C00241E8FA
:104500000023002BF5D1202180F83D10704708B51D
:1045100090F83E10222901D0022008BD82684FF495
:1045200080539A4201D1016921B1816A9A421BD01C
:104530004AB10AE00268816A5268C2F308020A803E
:10454000816A891C08E0026972B10268526802F04F
:104550007F020A70816A491C8162C18D491E09046B
:10456000090CC18503D019E002685268F1E70168BF
:10457000CA6822F02002CA600168CA6822F4807208
:10458000CA6001684A6922F001024A61202180F86C
:104590003E10016B012903D0FEF7A5FB002008BDEA
:1045A0000021016301680C3151E8002F22F0100254
:1045B00041E80023002BF5D101680A68D20602D534
:1045C0000A6849680091818DFEF763F9E6E700000B
:1045D00070B5044600680169E26821F44051114356
:1045E00001612169A068E2690843616911430843D8
:1045F0002168CA6849F20C639A430243CA60206882
:104600004169A26921F44071114341613149206837
:10461000884202D03049884202D1FDF7EBF901E02F
:10462000FDF7D8F9E2690023192164253226B2F595
:10463000004F626828D0A0FB0101930F9200FBF7A6
:104640001FFE0146B0FBF5F06FF01802504301EB7E
:10465000800006EB0010B0FBF5F000F0F002B1FBBB
:10466000F5F002EB0012B1FBF5F06FF018035843C0
:1046700001EB800006EB0010B0FBF5F000F00F003E
:1046800021681044886070BDA0FB010192185B4155
:10469000FBF7F6FD0146B0FBF5F00201B1FBF5F0CA
:1046A0006FF01803584301EB800006EBC000B0FB2D
:1046B000F5F000F0F80002EB4002B1FBF5F05843D2
:1046C00001EB800006EBC000B0FBF5F000F0070046
:1046D000D6E70000001001400014014038B58162A7
:1046E00082850025134604460564222084F83E0096
:1046F000A26B1C48D063A26B1B481064A26B1B48C2
:10470000D064A06B0A4605652168A06B091DFCF703
:1047100001FC206801684068009084F83C502069E2
:1047200048B120680C3050E8001F41F4807140E827
:104730000012002AF5D12068143050E8001F41F023
:10474000010140E80012002AF5D12068143050E839
:10475000001F41F0400140E80012002AF5D100207E
:1047600038BD0000BD4300083F4400087343000803
:1047700038B50E4C20680168C943C90610D40168D9
:10478000406800902046FEF785F8A06B00684068FE
:104790000748FEF7DBFC1A2205492046FEF78EFA91
:1047A000BDE838400148FEF7AFB80000C40500205E
:1047B00010480020FEE703B401984100009850EA39
:1047C000C12018BF04204A0D18BF40F0010040F27C
:1047D000FF72B2EB515F08BF40F00200012808BF32
:1047E000052002B070470907090E002804DB00F11C
:1047F000E02080F80014704700F00F0000F1E02086
:1048000080F8141D7047000070B59B482DED020B19
:104810002DED068B079D25F00044A04218DC97483B
:10482000844202DC0AD1069840B19DED060BBDEC36
:10483000068B02B0BDE8704000F036BB002DCCBF47
:104840009FED8F0B9FED900BBDEC068B02B070BD02
:104850008F48A04215DD8F48A042D8BF4FF0FF34EB
:1048600058DD9DED060B51EC100BFFF7A4FF04285B
:1048700008BF00F02DFB9DED060BBDEC068B02B0D2
:1048800070BD9DED060B51EC100B01F069F8CDE900
:10489000060181489FED828BA0423CDD8248A04208
:1048A0001FDD00249FED82AB9DED060B53EC1A2B10
:1048B00051EC100BFBF777FD9DED060B41EC190B4E
:1048C00053EC1A2B51EC100BFBF714FE53EC182B86
:1048D000FBF70AFE53EC192BFBF77EFECDE9060130
:1048E00049E09DED060B012453EC182B51EC100B05
:1048F000FBF759FD9DED060B41EC190B53EC182B02
:1049000051EC100BFBF7F0FD53EC192BFBF764FE99
:10491000CDE906012FE06848A0421FDD02249FED8B
:10492000689B9DED060B53EC192B51EC100BFBF71C
:10493000E1FD53EC182BFBF736FD9DED060B41EC2A
:10494000180B53EC192B51EC100BFBF7CDFD53EC6E
:10495000182BFBF741FECDE906010CE09DED060B9F
:10496000032453EC102B9FED580B51EC100BFBF76D
:1049700033FECDE906019DED060B53EC102B51ECF7
:10498000100BFBF7B7FD41EC180B53EC182BFBF7A2
:10499000B1FD41EC190B4E480621B0EE490AF0EE8C
:1049A000690A784400F004FA53EC182B51EC100B10
:1049B000FBF7A0FD41EC180B4648B0EE490AF0EEBB
:1049C000690A0521784400F0F3F953EC192B51ECF6
:1049D000100BFBF78FFD41EC100B51EC180B53EC57
:1049E000102B002C0EDAFBF7DEFC9DED061B53ECC2
:1049F000112BFBF77FFD9DED061B53EC112BFBF7F5
:104A000076FD35E0FBF7CFFC9DED061B53EC112B3B
:104A1000FBF770FD41EC100B2F48784400EBC4000D
:104A200090ED001B51EC100B53EC112BFBF75CFDD0
:104A30009DED061B53EC112BFBF756FD41EC100BC3
:104A40002648784400EBC40090ED001B51EC100B9D
:104A500053EC112BFBF74BFD41EC100B002DA2BFCB
:104A6000BDEC068B02B070BD51EC100B81F0004123
:104A700041EC100B01E70000000010440000F07F43
:104A8000182D4454FB21F93F182D4454FB21F9BF44
:104A90000000DC3F0000203E0000F33F000000006B
:104AA000000000000000F03F0000E63F00000000B2
:104AB00000000000000000400080034000000000F3
:104AC000000000000000F83F000000000000F0BF00
:104AD00032460000E8450000724500002A4500000B
:104AE00070B56B4E2DED040B2DED028B82B0DDF811
:104AF0001CC0DDE905235C422CF000411C4341EA67
:104B0000D474049D22F00040B44205D86C422C437A
:104B100040EAD474B4420BD99DED061B9DED040B05
:104B200002B0BDEC028B04B0BDE8704000F0C6B925
:104B3000ACF14054A4F17F641C430BD0022404EA7E
:104B4000AC7444EAD27405439FED538B9FED542B14
:104B500007D015E09DED040B51EC100B00F020FA8E
:104B600042E0002C11BF012C9DED040B02B0BDEC06
:104B7000028B04BF04B070BD022C38D0032C3BD094
:104B80000B439FED491B9FED4A0B0AD0B14218D150
:104B9000B04209D121F0804120F08040079105907A
:104BA0000FE0002A15DA10E0434B7B44002C08BFCD
:104BB00093ED000B0DD0012C10D0022C17D0032C3C
:104BC0001AD0B0421DD1002A03DAB0EE410AF0EE4D
:104BD000610A02B0BDEC028B04B070BD93ED000B16
:104BE00051EC100B81F0004141EC100BF1E7B0EEFD
:104BF000480AF0EE680AECE7B0EE420AF0EE620A0C
:104C0000E7E7401A00153C28C8BF8DED000B19DC02
:104C1000BCF1000FBEBF10F13C0F9FED290B8DEDD5
:104C2000000B0FDB9DED060B53EC102B9DED040BE1
:104C300051EC100BFBF7D0FC00F092FE00F0B0F945
:104C4000CDE90001002C08BF9DED000BC1D0012C67
:104C500010D0022C9FED1C0B53EC102B9DED000B84
:104C600051EC100B0DD0FBF73FFC53EC182BFBF76E
:104C70003BFCB9E7019880F0004001909DED000BEE
:104C8000A7E7FBF731FC53EC182BFBF730FCABE745
:104C90000000F07F00000000182D4454FB21094063
:104CA000182D4454FB2109C0182D4454FB21F9BF91
:104CB000182D4454FB21F93F5A4400000000000025
:104CC0000000000000000000075C143326A6A13C91
:104CD00010B52DED020B2DED088B84B09DED0C0B66
:104CE00051EC100BFBF762FE41EC180B9DED0C0B29
:104CF00053EC182B51EC100BFBF7F6FB41EC190BA6
:104D00000D989FED290B10F0004F53EC102B51EC38
:104D1000190B9FED21AB9FED22BB0ED0FBF734FDAD
:104D20000ED953EC1B2B51EC190BFBF745FD1CD294
:104D300014E000BF41EC180B17E0FBF725FD06D28D
:104D400053EC1A2B51EC180BFBF7CEFBF2E753ECAC
:104D50001B2B51EC190BFBF72FFD06D853EC1A2B2C
:104D600051EC180BFBF71FFBE4E78DED028B9DED7B
:104D70000C0B18EE901A10EE900A8DED000B61F3FB
:104D80001E0003909DED020B04B0BDEC088B02B039
:104D900010BD000000000000000000000000F03F17
:104DA000000000000000E03F000000000000E0BF45
:104DB00070B504462DED028B4D1E00EBC500B0EE24
:104DC000408AF0EE608A90ED000B35F0060017D0B7
:104DD00053EC182B51EC100BFBF78CFB41EC100B38
:104DE0006D1E04EBC50090ED001B51EC100B53EC55
:104DF000112BFBF7D8FA41EC100B35F00600E7D188
:104E0000022D36D0042D1CD0062D1CBFBDEC028B0C
:104E100070BD53EC182B51EC100BFBF76BFB94EDB2
:104E20000A1B53EC112BFBF7BEFA53EC182BFBF7C4
:104E300061FB94ED081B53EC112BFBF7B4FA41EC2A
:104E4000100B53EC182B51EC100BFBF753FB94EDAC
:104E5000061B53EC112BFBF7A6FA53EC182BFBF7B0
:104E600049FB94ED040B53EC102BFBF79CFA41EC3F
:104E7000100B53EC182B51EC100BFBF73BFB94ED94
:104E8000021B53EC112BFBF78EFA53EC182BFBF79C
:104E900031FB94ED001B53EC112BFBF784FABDECB6
:104EA000028B41EC100B70BD10B553EC102B51EC84
:104EB000100BFBF778FA41EC100B10BD10B553EC5A
:104EC000112B51EC100BFBF76EFA41EC100B10BDDF
:104ED0009FED050B10B553EC102B51EC100BFBF7AD
:104EE00009FB41EC100B10BD000000000000001099
:104EF00002E008C8121F08C1002AFAD170477047A3
:104F0000002001E001C1121F002AFBD17047000000
:104F1000FEB506460D460024684600F045FD002219
:104F20009FED1B1A6B46012156F8227055F822009E
:104F3000381A00D5404200EE100A03EB8200B8EEAA
:104F4000C00AD0ED000A20EE010AF5EEC00AF1EE2B
:104F500010FA0DD0C0EE201AB7EE000A0D4F31EE58
:104F6000C00AB0EEC00A10EE100AB84207DC09E031
:104F700010EE100A084F3844084FB84202D301FA25
:104F800002F00443521C032ACEDB2046FEBD000083
:104F900000008037295C0F3E666666C19A99D90089
:104FA00010B541EC100BFFF72FFC51EC100B10BDAE
:104FB0000D4900220B685A620A68136843F0010326
:104FC000136009684A6A8242FCD3086A41F21112EE
:104FD000104207D1086A9210104203D1086820F0ED
:104FE00001000860704700007C05002008B560B132
:104FF00020208DF8000028208DF8010030208DF849
:10500000020038208DF8030004E0A3220421684642
:10501000FBF7AAF96A46042140F69E2001F0C6FE7D
:1050200001F0D6FA08BD00003EB5044602208DF816
:105030000000CA208DF80100E3208DF8020009204D
:105040008DF803006A460421682001F0AFFEA3201A
:105050008DF80000610609D5C0218DF80110C82126
:105060008DF80210C2218DF8031005E08DF80100C3
:105070008DF802008DF8030014F4C07F09D0C4211C
:105080008DF80410CC218DF80510C6218DF806107E
:1050900005E08DF804008DF805008DF806008DF808
:1050A00008008DF807008DF809006A460A2140F6CD
:1050B000A72001F07BFEA0074FF0D80503D02020E9
:1050C0008DF8000001E08DF800506A46012140F69D
:1050D000B62001F06BFEA00601D5012000E0002003
:1050E00000F08EF814F4C07F1ED0E0050AD5B2207F
:1050F0008DF800008B208DF80100B6208DF802009D
:105100009B2009E0B0208DF8000080208DF8010080
:10511000B4208DF8020090208DF803006A46042127
:1051200040F6A22001F042FEE1074FF40B6022D0CE
:10513000F8218DF800106A46012101F037FEFA21AE
:10514000072000F03DFB072000F008FB012000F0E5
:1051500025FB642000F0E4FB4FF4FA7000F0F0FB54
:10516000C821254800F0C2FA282000F0D7FA0A200A
:1051700000F0E4FA05E08DF800506A46012101F0E4
:1051800015FEA00703D5D9208DF8000001E08DF8A9
:1051900000506A46012140F23D7001F007FE6007B1
:1051A00001D5012000E0002000F048F8E00601D51C
:1051B000012000E00020FFF719FF104D44F0080027
:1051C000688101F005FA0020A873600601D5062069
:1051D000A87314F4C07F02D0A87B801DA87314F0BC
:1051E000140F02D0A87B1030A873A00702D0A87BB0
:1051F000001DA87300203EBD09E3CA02004800203C
:105200000EB54FF4976310B106A107C901E008A2DB
:1052100007CA8DE807006A460921184601F0C6FD55
:105220000EBD0000B8AAB38DB4980D355D00000026
:10523000B8AAAAAAB088C3C5C700000008B560B163
:10524000C0208DF80000C2208DF80100C4208DF828
:105250000200C6208DF8030004E08B22042168467A
:10526000FBF782F86A46042140F6982001F09EFD83
:1052700001F0AEF908BD0000C8234FF48062024976
:1052800040F6F63001F048B8748300082DE9FF4F6E
:1052900089B01746DDE9165200244E4E88468146F5
:1052A0002C80A246B07B694601F0F8F84FF0FF3B36
:1052B00018B158460DB0BDE8F08F708910F0140F8A
:1052C0003ED0009909BA21F0FF029DF803100A436D
:1052D0003A6001999DF8073009BA21F0FF0119439E
:1052E0007960029B9DF80B401BBA23F0FF03234318
:1052F000BB60039C121424BA24F0FF0C9DF80F40ED
:1053000009144CEA040C1024C7F80CC01B144FEA13
:105310002C4712FB02F211FB012113FB03F217FBD6
:1053200007221144A1F17061B1F1007F04D901F0AD
:105330004FF9A5F800A0BCE7298841F480712980C5
:105340004206694611D50A19A41D13885BBAA8F84C
:10535000003053885BBAA8F80230928852BAA8F895
:1053600004202A8842F008022A8010F4C07F11D05D
:105370000A19A41D13885BBAA9F8003053885BBAD8
:10538000A9F80230928852BAA9F804202A8842F07B
:1053900070022A80800716D00C44E07800F0C00527
:1053A00000F03F016078C00706D0C80801F007018F
:1053B0003268491C02B190476078000703D57168D4
:1053C00009B1A8098847FBF7EDFE0C990860002099
:1053D00070E70000004800202DE9FF41044603A8C3
:1053E00000F0A0FEBDF80C00410CC30300BF2F4825
:1053F000028902F00300550754F8200000D540420E
:10540000C2F3C105960654F8255000D56D42C2F38B
:105410008116D20554F8264000D56442A0FB0367EC
:10542000C21702FB037200FB0120820042EA967061
:10543000A5FB0367EA1702FB037205FB0122950037
:1054400045EA9672A4FB0367E51705FB037304FBAB
:1054500001318B0043EA9671030E8DF80030030C86
:105460008DF80130030A8DF802308DF80300100E1C
:105470008DF80400100C8DF80500100A8DF8060058
:10548000080E8DF80800080C8DF80900080A8DF840
:105490000A008DF807208DF80B106A460C214FF496
:1054A000257001F083FC04B0BDE8F08100480020C5
:1054B00030B5044613A285B007CA8DE807004FF047
:1054C000FF35C82C16D8C820B0FBF4F1491E080AD5
:1054D0008DF80C008DF80D1003AA022140F2162061
:1054E00001F064FC30B96A460C2140F6C12001F09D
:1054F0005DFC10B1284605B030BD05488481002010
:10550000F9E70000FEF2ABC4AAF1DFDFBBAFDFDFDB
:1055100000480020F8B53049098901F0030250F82D
:1055200022404A0700D56442C1F3C1028B0650F8FD
:10553000222000D55242C1F3811350F82330C80510
:1055400000D55B42254984FB0140850045EA947003
:1055500082FB0142A40F44EA820483FB0121950FE0
:1055600045EA8105010E8DF80010010C8DF801103F
:10557000010A8DF802108DF803006A4604214FF4E9
:10558000747001F013FC4FF0FF3688B9200E8DF8CF
:105590000000200C8DF80100200A8DF802008DF823
:1055A00003406A4604214FF4757001F0FFFB08B117
:1055B0003046F8BD280E8DF80000280C8DF801004B
:1055C000280A8DF802008DF803506A4604214FF432
:1055D000767001F0EBFBF8BD0048002009E3CA0239
:1055E0002DE9FF4104463CA004F00303006802904B
:1055F0003AA0006803903AA006683AA0056802A89D
:10560000C15C8DF80010C4F3C101425C8DF801202B
:10561000C4F38112805C8DF8020003A8C35C8DF88E
:105620000430415C8DF80510805C8DF806006A46F8
:10563000032140F2264001F0B9FB4FF0FF37E0BBF9
:1056400001AA032140F22A4001F0B0FBA8BBCDE93A
:10565000006560070BD59DF8000040F001008DF853
:1056600000009DF8040040F001008DF80400A00641
:105670000BD59DF8010040F001008DF801009DF868
:10568000050040F001008DF80500E0050BD59DF800
:10569000020040F001008DF802009DF8060040F085
:1056A00001008DF806006A4603214FF4886001F07E
:1056B0007DFB10B901AA032100E004E040F2314073
:1056C00001F074FB18B1384604B0BDE8F08106481B
:1056D00004810020F8E700004CCD6C000CC92C00C0
:1056E0003656760026466600004800204FF47A724F
:1056F00090FBF2F008B54843010E8DF80010010C44
:105700008DF80110010A8DF802108DF803006A4629
:1057100004214FF4AE7001F049FB08BD0521B0FB38
:10572000F1F008B5010A8DF800108DF801006A4605
:1057300002214FF4AD7001F039FB08BD0521B0FB2B
:10574000F1F008B5010A8DF800108DF801006A46E5
:1057500002214FF4AC7001F029FB08BD08B500210F
:105760008DF80010C10702D030218DF8001081079C
:1057700005D59DF8001041F00C018DF80010400790
:1057800005D59DF8000040F003008DF800006A4642
:1057900001214FF4A47001F009FB08BD08B560B108
:1057A000042800D90420401E8DF800006A4601211B
:1057B00040F24F1001F0FAFA08BD0120F3E70000B3
:1057C00070B504462DED028B82B040074FF0FF35D7
:1057D0007ED0B1F5C86F7BD800EE101AB8EE400A43
:1057E000DFED460A01A880EE208A00F07DFC9DF8DE
:1057F0000400022806D0042810D0082835D010282C
:1058000074D13EE09FED3E0A28EE000ABCEEC00ACD
:1058100010EE100A9FED3B0A82B20AE09FED3A0AB1
:1058200028EE000ABCEEC00A10EE100A9FED370AFF
:1058300082B228EE000A6E46BCEEC00A10EE100AD4
:1058400081B2100A8DF800008DF80120080A8DF849
:1058500002008DF80310E00726D0324602214FF4F3
:10586000EA7001F0A3FA98BB17E09FED290A28EE31
:10587000000ABCEEC00A10EE100A9FED260A82B2A2
:10588000D7E79FED250A28EE000ABCEEC00A10EE0D
:10589000100A9FED220A82B2CBE7B21C02214FF41C
:1058A000927001F083FA98B9A0070DD56A460221DB
:1058B0004FF4EC7001F07AFA50B9B21C02214FF4A7
:1058C000947001F073FA18B9600714D56A4600E0C5
:1058D0000CE002214FF4EE7001F068FA30B9B21C0E
:1058E00002214FF4967001F061FA20B1284602B00F
:1058F000BDEC028B70BD0020F9E7000000004843BA
:105900000000804600004046000000460000C04500
:105910000000804500004045000000450000C044F4
:105920000521B0FBF1F008B5010A8DF800108DF8E3
:1059300001006A4602214FF4EF7001F037FA08BD0A
:105940000521B0FBF1F008B5010A8DF800108DF8C3
:1059500001006A4602214FF4ED7001F027FA08BDFC
:1059600082B0CDE9000121F0004001909DED000BD7
:1059700002B051EC100B704730B5034600208C2468
:105980000EE000BF13F8012B50400022C50702D0E3
:1059900084EA500000E04008521CD2B2082AF5D335
:1059A000491E89B2EED230BD10B586B004464FF420
:1059B0008072042104A88DE80700274801230D22E6
:1059C000406801782548FBF7B7FC10B1072006B006
:1059D00010BD9DF810101C2000EAD1029DF8131094
:1059E000DFED1F0AC1F301131A438DF80C209DF857
:1059F0001120C1F3810300EAD2021A438DF80D2071
:105A00009DF8122001F0030100EAD20008439FED47
:105A1000151A9FED150A8DF80E00002103AA505C9F
:105A2000002804EB810002D080ED001A08E0C0EDF0
:105A3000000A0BE0D0ED001A61EE801AC0ED001AEA
:105A4000535C5B1E13F0FF035354F3D1491CC9B2DE
:105A50000329E4D30020BAE7D00000207803002017
:105A6000000000007B14AE3E1D5A843F2DE9F04F2C
:105A700087B04FF0010A0C4605468DF80CA04FF098
:105A800000080DF10C098DF80D804FF4807602218D
:105A90004846DFF8C4B38DE84300DBF80010DBF8BC
:105AA000040017464A7D01785346EC48FBF740FD59
:105AB00000287DD1C820FBF765FA00208DF80C0086
:105AC000B046CDF80090CDE901A8DBF800005E46B5
:105AD0000123427CDBF804000178E048FBF728FD55
